{
  "_format": "hh-sol-artifact-1",
  "contractName": "Payable",
  "sourceName": "contracts/Payable.sol",
  "abi": [
    {
      "inputs": [],
      "stateMutability": "nonpayable",
      "type": "constructor"
    },
    {
      "inputs": [],
      "name": "ETH_to_USD",
      "outputs": [
        {
          "internalType": "address",
          "name": "",
          "type": "address"
        }
      ],
      "stateMutability": "view",
      "type": "function"
    },
    {
      "inputs": [],
      "name": "getContractBalance",
      "outputs": [
        {
          "internalType": "uint256",
          "name": "",
          "type": "uint256"
        }
      ],
      "stateMutability": "view",
      "type": "function"
    },
    {
      "inputs": [],
      "name": "getConversionRate",
      "outputs": [
        {
          "internalType": "uint256",
          "name": "",
          "type": "uint256"
        }
      ],
      "stateMutability": "view",
      "type": "function"
    },
    {
      "inputs": [],
      "name": "getLatestPrice",
      "outputs": [
        {
          "internalType": "uint256",
          "name": "",
          "type": "uint256"
        }
      ],
      "stateMutability": "view",
      "type": "function"
    },
    {
      "inputs": [],
      "name": "getOwnerBalance",
      "outputs": [
        {
          "internalType": "uint256",
          "name": "",
          "type": "uint256"
        }
      ],
      "stateMutability": "view",
      "type": "function"
    },
    {
      "inputs": [],
      "name": "owner",
      "outputs": [
        {
          "internalType": "address payable",
          "name": "",
          "type": "address"
        }
      ],
      "stateMutability": "view",
      "type": "function"
    },
    {
      "inputs": [
        {
          "internalType": "address payable",
          "name": "_to",
          "type": "address"
        }
      ],
      "name": "sendViaCall",
      "outputs": [],
      "stateMutability": "payable",
      "type": "function"
    },
    {
      "stateMutability": "payable",
      "type": "receive"
    }
  ],
  "bytecode": "0x608060405234801561001057600080fd5b50336000806101000a81548173ffffffffffffffffffffffffffffffffffffffff021916908373ffffffffffffffffffffffffffffffffffffffff16021790555073694aa1769357215de4fac081bf1f309adc325306600160006101000a81548173ffffffffffffffffffffffffffffffffffffffff021916908373ffffffffffffffffffffffffffffffffffffffff160217905550600160009054906101000a900473ffffffffffffffffffffffffffffffffffffffff16600260006101000a81548173ffffffffffffffffffffffffffffffffffffffff021916908373ffffffffffffffffffffffffffffffffffffffff160217905550610808806101186000396000f3fe6080604052600436106100745760003560e01c80638da5cb5b1161004e5780638da5cb5b146100f25780638e15f4731461011d578063b2f33beb14610148578063f36089ec146101735761007b565b8063590791f2146100805780636f9fb98a146100ab578063830c29ae146100d65761007b565b3661007b57005b600080fd5b34801561008c57600080fd5b5061009561019e565b6040516100a2919061058b565b60405180910390f35b3480156100b757600080fd5b506100c06101de565b6040516100cd919061058b565b60405180910390f35b6100f060048036038101906100eb91906103f9565b6101e6565b005b3480156100fe57600080fd5b50610107610296565b6040516101149190610550565b60405180910390f35b34801561012957600080fd5b506101326102ba565b60405161013f919061058b565b60405180910390f35b34801561015457600080fd5b5061015d61037a565b60405161016a9190610535565b60405180910390f35b34801561017f57600080fd5b506101886103a0565b604051610195919061058b565b60405180910390f35b60008060009054906101000a900473ffffffffffffffffffffffffffffffffffffffff1673ffffffffffffffffffffffffffffffffffffffff1631905090565b600047905090565b60008173ffffffffffffffffffffffffffffffffffffffff164760405161020c90610520565b60006040518083038185875af1925050503d8060008114610249576040519150601f19603f3d011682016040523d82523d6000602084013e61024e565b606091505b5050905080610292576040517f08c379a00000000000000000000000000000000000000000000000000000000081526004016102899061056b565b60405180910390fd5b5050565b60008054906101000a900473ffffffffffffffffffffffffffffffffffffffff1681565b600080600260009054906101000a900473ffffffffffffffffffffffffffffffffffffffff1673ffffffffffffffffffffffffffffffffffffffff1663feaf968c6040518163ffffffff1660e01b815260040160a06040518083038186803b15801561032557600080fd5b505afa158015610339573d6000803e3d6000fd5b505050506040513d601f19601f8201168201806040525081019061035d9190610422565b5050509150506402540be4008161037491906105c2565b91505090565b600160009054906101000a900473ffffffffffffffffffffffffffffffffffffffff1681565b600090565b6000813590506103b481610776565b92915050565b6000815190506103c98161078d565b92915050565b6000815190506103de816107a4565b92915050565b6000815190506103f3816107bb565b92915050565b60006020828403121561040b57600080fd5b6000610419848285016103a5565b91505092915050565b600080600080600060a0868803121561043a57600080fd5b6000610448888289016103e4565b9550506020610459888289016103ba565b945050604061046a888289016103cf565b935050606061047b888289016103cf565b925050608061048c888289016103e4565b9150509295509295909350565b6104a2816106eb565b82525050565b6104b1816106d9565b82525050565b60006104c46014836105b1565b91507f4661696c656420746f2073656e642045746865720000000000000000000000006000830152602082019050919050565b60006105046000836105a6565b9150600082019050919050565b61051a81610727565b82525050565b600061052b826104f7565b9150819050919050565b600060208201905061054a60008301846104a8565b92915050565b60006020820190506105656000830184610499565b92915050565b60006020820190508181036000830152610584816104b7565b9050919050565b60006020820190506105a06000830184610511565b92915050565b600081905092915050565b600082825260208201905092915050565b60006105cd826106fd565b91506105d8836106fd565b9250827f7fffffffffffffffffffffffffffffffffffffffffffffffffffffffffffffff048211600084136000841316161561061757610616610747565b5b817f8000000000000000000000000000000000000000000000000000000000000000058312600084126000841316161561065457610653610747565b5b827f8000000000000000000000000000000000000000000000000000000000000000058212600084136000841216161561069157610690610747565b5b827f7fffffffffffffffffffffffffffffffffffffffffffffffffffffffffffffff05821260008412600084121616156106ce576106cd610747565b5b828202905092915050565b60006106e482610707565b9050919050565b60006106f682610707565b9050919050565b6000819050919050565b600073ffffffffffffffffffffffffffffffffffffffff82169050919050565b6000819050919050565b600069ffffffffffffffffffff82169050919050565b7f4e487b7100000000000000000000000000000000000000000000000000000000600052601160045260246000fd5b61077f816106eb565b811461078a57600080fd5b50565b610796816106fd565b81146107a157600080fd5b50565b6107ad81610727565b81146107b857600080fd5b50565b6107c481610731565b81146107cf57600080fd5b5056fea264697066735822122076eb08dc90a060549e237fc0f7a960c50d210fefe0ff4d941139fe320a4c863264736f6c63430008000033",
  "linkReferences": {},
  "deployedLinkReferences": {}
}